:1000000008308A00002800000A108A100A118207AE
:100010003734383439344134343435343634423476
:1000200031343234333443342A3430342334443496
:10003000C330EC31753661326F3961105026D529E5
:100040000000C23CA021A62600010C10251A2E1B80
:10005000661020102F000C10251A2E1B6610201081
:100060002A000C10251A2E1B661020102D000C10D3
:10007000251A2E1B661020102B000C10251A2E1886
:10008000661020102F000C10251A2E186610201054
:100090002A000C10251A2E18661020102D000C10A6
:1000A000251A2E18661020102B008A150A12152802
:1000B000CA01A00A2008213C0318B8282308FC3EE6
:1000C00003187B28043EBF28EF3083168600831276
:1000D00086007B28DF3083168600831286007B280B
:1000E000BF3083168600831286007B287F308316FC
:1000F000860083128600211C872806080F390F3CD2
:10010000031D862821102208CA00A201B72806086C
:100110000F390F3C0319B22806080139031D922834
:10012000CB01A62806080239031D99280130CB000F
:10013000A62806080439031DA0280230CB00A628F3
:1001400006080839031DA6280330CB004B0DF70025
:10015000F70DFC30F705770823070420F800A2000C
:100160002114B728A30A2308043C0319A301A00102
:10017000FF308316860083124A08F80008000A1030
:100180008A100A11820764286A28702876284B088A
:10019000D2004F08D206D21FD22803110310CB1B66
:1001A000031405294B08D2004E08D3004A08D30295
:1001B0000319E028D21F05290308013A8300052905
:1001C0004F08D3004B08D3020319EC28D21F05298E
:1001D0000308013A830005295008D3004C08D302D4
:1001E0000319F828D21F05290308013A83000529BD
:1001F0005108D3004D08D30203190429D21F052941
:100200000308013A830005290310080058308400D0
:1002100083130008031919290630F800F701F70BBA
:100220000F29F80B0E297B30F700F70B1529800BEF
:100230000C2908005F0EF039F7000F30080577042D
:10024000880000000814831608100230F700F70B2E
:1002500027292A2900008312081083160810831208
:1002600008000808F700080E0F39F80008000F30E2
:1002700083160805F03888008312081583160811C4
:100280000000831208148316081000008312312125
:100290007808DF0008108316081000008312081485
:1002A000831608105329542900008312312178083D
:1002B000DE000810831608100F300805880083122E
:1002C0005F0EF700F030F70577085E04F8000800CD
:1002D000831608108810081183128810831688105E
:1002E000831237217808DE00DE1B7129DC08031D2C
:1002F0007B2988107C2988148316881000008312BB
:1003000008118316081100008312081083160810C4
:1003100083125D0EDE000F30DE055E08DF001A215D
:100320005D080F39DE00DF001A2108002830CB00FD
:100330000C30CC000130CD000630CE000810831602
:1003400008108312881083168810831208118316F0
:1003500008110F30080588000810881008110F30A8
:100360008312D80006210130CA004A08033C031C4E
:10037000C1290330DF001A210530D8000621CA0A3E
:10038000B5290230DF001A210530D8000621CA0144
:100390004A08033C031CD8294B304A0784008313C6
:1003A0000008CF00DC014F08DD006821CA0AC82917
:1003B0008A150A124928590BDE29E1294030DA0052
:1003C000E229DA0101305802DA075A088038DB00E6
:1003D000DC015B08DD00682108005708073A0319B3
:1003E000FB290B3A0319002A063A0319082A023A94
:1003F00003190E2A132A0130D800D900DB21182A4C
:10040000DC010130DD0068210230D8000621182A05
:100410000130D8000230D900DB21182ADC0110306D
:10042000DD006821182A0130DC005708DD00682152
:1004300008000B08CA008B13831603178C170C14C3
:100440000000000083120313CA1B8B1703170C084C
:100450007F3903196D2A0313CA0003170D0803130C
:10046000CB0003170F080313CC004A08D700ED2177
:100470004B0803178D0003134C0803178F00031359
:100480000B08CD008B13831603178C170C14000078
:10049000000083120313CD1B8B1703170C0D0E0DD9
:1004A0007F3903196D2A0313CA0003170D080313BC
:1004B000CB0003170F080313CC004A08D700ED2127
:1004C0004B0803178D0003134C0803178F008D0A88
:1004D00003198F0A0313192A0317031308008E3018
:1004E000F7004B08F8004A08F900FA01F808031D64
:1004F000832A7908F800F9010830F702F808031D8B
:10050000832AF7018B2A0310F81B8A2AF90DF80DAC
:10051000F703832AF81308004A08D8004B08D900CB
:10052000DB2137217808CD00CD1B912A8814831652
:100530008810831237217808CC0088108316881021
:1005400083124C08F8000800F701F8014E08031068
:100550004F18F707F70CF80CCF18F707F70CF80C43
:100560004F19F707F70CF80CCF19F707F70CF80C31
:100570004F1AF707F70CF80CCF1AF707F70CF80C1F
:100580004F1BF707F70CF80CCF1BF707F70CF80C0D
:1005900008001030D000F701FA01CD0CCC0C031C80
:1005A000D72A4E08F7070318FA0A4F08FA07FA0C79
:1005B000F70CF90CF80CD00BCD2A080057080319DA
:1005C0004E2BDF005B0803194E2BDF070318EF2AC1
:1005D0007F30DF02031C4E2B03194E2BF32A813090
:1005E000DF0703184E2B5F08F700F801F901FA0145
:1005F0005808E300E3175908E2005A08E1001830F0
:10060000DF00E001611C1C2B5E08FA07031C0E2BA7
:10061000F90A031D0E2BF80A0319E0175D08F90704
:10062000031C152BF80A0319E0175C08D900D91729
:100630005908F8070318E017E00DF80CF90CFA0C4C
:10064000E30CE20CE10C0310DF0B012B0130F70788
:1006500003184E2BF81B332BE30DFA0DF90DF80D93
:10066000F70303194E2BE31F442BFA0A031D442BF7
:10067000F90A031D442BF80A031D442BF80CF90C4E
:10068000FA0CF70A03194E2B5808E0005C08E00644
:10069000E01F4C2BF817522BF813522BF701F801DF
:1006A000F901FA0108005708B63CD700FA015808CA
:1006B000DB00D8170310D80CD90CDA0CFA0CF90CA3
:1006C000F80CF70CD70B5A2BDB1F712BF709F80925
:1006D000F909FA09F70A0319F80A0319F90A0319BB
:1006E000FA0A08008318772B5F3084008313F70120
:1006F000F801F901FA01DF01E001E101E2015E0820
:100700005D045C045B040319B52B2030E300031087
:10071000D70DD80DD90DDA0DDF0DE00DE10DE20D8D
:100720005E086202031D9E2B5D086102031D9E2B65
:100730005C086002031D9E2B5B085F02031CAF2B4D
:100740005B08DF025C08031C5C0FE0025D08031C11
:100750005D0FE1025E08031C5E0FE2020314F70D59
:10076000F80DF90DFA0DE30B872B5F088000840A62
:1007700060088000840A61088000840A62088000A2
:1007800008000408CF004E08D1000319E02B4D08E3
:10079000DA004C08D9004B08D8004A08D700DE011F
:1007A000DD012030DC008230DB00DE227A08CD0063
:1007B0007908CC007808CB007708CA00D10BC72B8A
:1007C0004D08DA004C08D9004B08D8004A08D70079
:1007D00053237A08CD007908CC007808CB0077083D
:1007E000CA00CD1F002CCF03CF16CA09CB09CC09F4
:1007F000CD09CA0A0319CB0A0319CC0A0319CD0A79
:100800003B30D6009A30D500CA30D400D3010A302C
:10081000D1004E080319CF0A83144A308400831391
:100820004D08DA004C08D9004B08D8004A08D70018
:100830005608DE005508DD005408DC005308DB00D4
:1008400072237808F708031D382C4E0A5102031949
:10085000382C4F0803193A2C0F3951020319322C46
:1008600003186A2CCF1B6A2C4F1B3A2C2030662CA5
:100870002030CF05CF1E482CCF124E08031DCF03CA
:100880007708CF002D30D700ED214F08F700CF01BA
:100890004E085102031D562C7708CF002E30D7008A
:1008A000ED214F08F7002030CF0500303030CF1E4B
:1008B000662CCF124E08031DCF037708CF002D30D2
:1008C000D700ED214F08F700CF013030F707770848
:1008D000D700ED2183105608DA005508D9005408D6
:1008E000D8005308D700DE01DD01DC010A30DB004F
:1008F00072237A08D6007908D5007808D4007708E2
:10090000D300D10B0C2C08000B08CB008B138316E3
:1009100003178C170C140000000083120313CB1B69
:100920008B170318BB2C03170C087F390313CB005C
:1009300003170D080313CC0003170F080313CD0092
:100940004B08D700ED214C0803178D0003134D0809
:1009500003178F0003130B08CE008B1383160317A6
:100960008C170C140000000083120313CE1B8B178E
:10097000CA0BBB2CDA2C03170C0D0E0D7F39031399
:10098000CB0003170D080313CC0003170F08031344
:10099000CD004B08D700ED214C0803178D00031341
:1009A0004D0803178F008D0A03198F0A03100313D4
:1009B000CA0B842C08004A080319A02DD6004E0843
:1009C0000319A02DD602031CEA2C7F30D60703188A
:1009D000A02DF02C8130D602031CA02D0319A02DD0
:1009E0005608F700F801F901FA01D5014B08D400C7
:1009F000D4174C08D3004D08D2001930D600510846
:100A0000D2020318132D0130D3020318132DD40280
:100A10000318132DD5020318132DD50AD40AD30AAF
:100A20005108D207452D5008D30203182E2D01304E
:100A3000D40203182E2DD50203182E2DD50AD40A60
:100A40005008D3075108D207031C452DD30A031DB4
:100A5000452DD40A031D452DD50A452D4F08803854
:100A6000D4020318442D0130D5020318442DD50AB1
:100A70004F088038D4075008D307031C222DD40A0E
:100A8000031D222DD50A222D7A14D60B482D532D65
:100A90000310D20DD30DD40DD50D0310FA0DF90DA1
:100AA000F80DD70DFF2C571C5B2D0310F80CF90C1B
:100AB000FA0CD70C5E2DF7030319A02DD71B872D39
:100AC0000310D20DD30DD40DD50D5108D202031849
:100AD000732D0130D3020318732DD4020318732D24
:100AE000D502031C962D5008D30203187E2D013029
:100AF000D40203187E2DD502031C962D4F08803892
:100B0000D4020318872D0130D502031C962DFA0A52
:100B1000031D962DF90A031D962DF80A031D962D27
:100B2000F70A0319A02DF80CF90CFA0C4B08D600A3
:100B30004F08D606D61F9E2DF817A42DF813A42D06
:100B4000F701F801F901FA01080080308318DC068A
:100B5000E101E2015808E0005C08E00657080319CB
:100B6000952EDF00F7005B0803199E2EDF020319A4
:100B70003A2E031CF82D5C08E500E5175D08E4003B
:100B80005E08E300E2010310E50CE40CE30CE20C68
:100B9000DF0BC22DE01FCF2D6114B22E61105F104C
:100BA00061165A3084008313C72E6112E01BE22DB8
:100BB0005F1CED2DE50CE40CE30CE20CF70A0319C5
:100BC000AD2EED2DE51BF02D0310E20DE30DE40D30
:100BD000E50DF7030319AD2EE22D61175A2E6113AF
:100BE0005808E000E01FF62DE517A62EE513A62E07
:100BF0005B08DF00F7005708DF025808E500E5173B
:100C00005908E4005A08E300E2010310E50CE40C83
:100C1000E30CE20CDF0B042EE01F112EE114B22EC8
:100C2000E1105F10E1165E3084008313C72EE112DD
:100C3000E01B242E5F1C2F2EE50CE40CE30CE20CD1
:100C4000F70A0319AD2E2F2EE51B322E0310E20DED
:100C5000E30DE40DE50DF7030319AD2E242EE11786
:100C60005A2EE1135C08E000E01F382EE517A62E8F
:100C7000E513A62E5C08E500E5175D08E4005E08B4
:100C8000E300E01F472EE5136115B22E6111E2016A
:100C90005F105A3084008313C72EE01B702E580853
:100CA000E0005F1C5A2EE50CE40CE30CE20CF70AA2
:100CB0000319AD2EE21F6B2EE30A031D6B2EE40A0F
:100CC000031D6B2EE50A031D6B2EE50CE40CE30CF3
:100CD000F70A0319AD2E611BEF2DE11B312E8F2E6C
:100CE0008030E506E51F782EB22E5C08E000852EE8
:100CF0005808E000E508031D852EE408031D852E35
:100D0000E308031D852EF701A62EE51B8F2E031089
:100D1000E20DE30DE40DE50DF70B852EAD2EE01F82
:100D2000932EE517A62EE513A62E5B08F7005C08A8
:100D3000E5005D08E4005E08E300A62E5708F70012
:100D40005808E5005908E4005A08E3006508F8006F
:100D50006408F9006308FA00E52EF701F801F901CB
:100D6000FA01E52EE201E309E409E509E209E20AF4
:100D7000031DC02EE30A031DC02EE40A0319E50A71
:100D80006118CE2DE118102E6119462E752E00081F
:100D9000E307031CD12EE40A031DD12EE50A031933
:100DA0005F1484030008E407031CD92EE50A031925
:100DB0005F1484030008801F803AE50703185F145E
:100DC000611AD52DE11A172E4D2E08000408CF0008
:100DD0004E08D1000319052F4D08DA004C08D90040
:100DE0004B08D8004A08D700DE01DD012030DC00C6
:100DF0008230DB00DE227A08CD007908CC0078084A
:100E0000CB007708CA00D10BEC2E7E30F700F8013A
:100E1000CB1BF817F901FA0183104D08DA004C08D2
:100E2000D9004B08D8004A08D7007A08DE007908B4
:100E3000DD007808DC007708DB00A5257A08CD0006
:100E40007908CC007808CB007708CA004D08DA0092
:100E50004C08D9004B08D8004A08D70053237A0819
:100E6000CD007908CC007808CB007708CA00CD1FE8
:100E7000462FCF03CF16CA09CB09CC09CD09CA0A20
:100E80000319CB0A0319CC0A0319CD0A3B30D6004B
:100E90009A30D500CA30D400D3010A30D1004E08B0
:100EA0000319CF0A83144A30840083134D08DA00F3
:100EB0004C08D9004B08D8004A08D7005608DE0075
:100EC0005508DD005408DC005308DB007223780865
:100ED000F708031D7E2F4E0A510203197E2F4F087B
:100EE0000319802F0F3951020319782F0318B02FDF
:100EF000CF1BB02F4F1B802F2030AC2F2030CF05C1
:100F0000CF1E8E2FCF124E08031DCF037708CF00C0
:100F10002D30D700ED214F08F700CF014E085102C8
:100F2000031D9C2F7708CF002E30D700ED214F08EE
:100F3000F7002030CF0500303030CF1EAC2FCF125D
:100F40004E08031DCF037708CF002D30D700ED21C9
:100F50004F08F700CF013030F7077708D700ED21B1
:100F600083105608DA005508D9005408D8005308F1
:100F7000D700DE01DD01DC010A30DB0072237A08D4
:100F8000D6007908D5007808D4007708D300D10BB3
:040F9000522F0800D4
:1010000003081F39830083161F149F141F159F1197
:1010100083138312A0012110A201A301A401A50141
:101020003030AA00AB018A1155288A158316811326
:101030008A11831258208A157808AA002A082A3CA7
:101040000319AB0AAB080319502FAF01AE01AD0174
:10105000AC01B301B201B101B001B401B501B601F7
:10106000B701360B36280130B500B6012F08CD0088
:101070002E08CC002D08CB002C08CA00D101D001CD
:10108000CF01CE018A11C7208A15031D64288A1159
:1010900096298A15183003178D0000308F008A11A9
:1010A000031319228A150130D8000230D9008A11A1
:1010B000DB218A15213003178D0000308F008A1143
:1010C000031319228A1572282F08B3002E08B200C4
:1010D0002D08B1002C08B000AF01AE01AD01AC018C
:1010E0000130B4003030B800B900BA00BB00BF0115
:1010F000BE01BD01BC01C301C201C101C001C401E7
:10110000C501C601C701C901C801C708031D4F2F8A
:101110008A1158208A157808B8002F08CD002E08AB
:10112000CC002D08CB002C08CA00D101D001CF0182
:10113000CE018A11C7208A15031D3128C508031D59
:10114000C8283808433C031DC8283308CD0032089E
:10115000CC003108CB003008CA00D101D001CF014A
:10116000CE018A11C7208A15031DC8283608033C02
:101170000319C8280B30D8000230D9008A11DB21AE
:101180008A152D30D7008A11ED218A150130B7005C
:101190003808303C0319F4283808313C0319F42886
:1011A0003808323C0319F4283808333C0319F42872
:1011B0003808343C0319F4283808353C0319F4285E
:1011C0003808363C0319F4283808373C0319F4284A
:1011D0003808383C0319F4283808393C0319F42836
:1011E00038082A3C031D1F2A340B0429C608031D96
:1011F00004290C30D7008A11ED218A15B401B301FE
:10120000B201B101B001B50138082A3C031D0A2919
:101210000130C700C408031D2E293808303C0319CB
:101220002E290F30D8000230D9008A11DB218A150F
:101230003808D7008A11ED218A150130C5003030F9
:101240003802CB01CA008A116F228A157A08BF00C2
:101250007908BE007808BD007708BC004408033C4C
:10126000031C1C2AC40803191C2ABF01BE01BD01AE
:10127000BC010F30CA000230CB008A118C228A15C3
:101280007808B9000E30CA000230CB008A118C22D7
:101290008A157808BB000D30CA000230CB008A11D5
:1012A0008C228A157808BA000C30D8000230D90098
:1012B0008A11DB218A153A08D7008A11ED218A1597
:1012C0003B08D7008A11ED218A153908D7008A1109
:1012D000ED218A153808D7008A11ED218A15440BB3
:1012E0008C2930303902CB00CE000A30CF008A1171
:1012F000A4228A157808CA00303038024A07CB0188
:10130000CA008A116F228A157A08BF007908BE00C8
:101310007808BD007708BC004408023C031DC929B9
:1013200030303B02C800C9014908CD004808CC0054
:10133000CF016430CE008A11C9228A157908C9000C
:101340007808C80030303902CB00CE000A30CF0018
:101350008A11A4228A1578084807CA004908CB00D8
:101360000318CB0A303038024A07F8004B08FA005D
:101370000318FA0A7808CA007A08CB008A116F228B
:101380008A157A08BF007908BE007808BD00770882
:10139000BC004408033C031D1C2AC901C8013030AD
:1013A0003B02C800C9014908CD004808CC00CF0164
:1013B0006430CE008A11C9228A157908C9007808DC
:1013C000C80030303A02CB00CD014B08CC000330CE
:1013D000CF00E830CE008A11C9228A157908CB00E7
:1013E0007808CA004808CA0749080318490FCB07FC
:1013F00030303902CD00CE000A30CF008A11A4224D
:101400008A157808CA070318CB0A303038024A0711
:10141000F8004B08FA000318FA0A7808CA007A089C
:10142000CB008A116F228A157A08BF007908BE00A6
:101430007808BD007708BC00450B1F2AC40A38088D
:10144000413C0319332A3808423C0319332A38082F
:10145000433C0319332A3808443C0319332A38081B
:101460002A3C031D382A450B382AC6080319602A6E
:101470003808413C03194C2A3808423C03194C2ACD
:101480003808433C03194C2A3808443C03194C2AB9
:1014900038082A3C031D1A2C3308CD003208CC0032
:1014A0003108CB003008CA00D101D001CF01CE01F4
:1014B0008A11C7208A1503191A2CC608031D1A2C75
:1014C0003308CD003208CC003108CB003008CA0008
:1014D000D101D001CF01CE018A11C7208A1503198D
:1014E0007D2A3308BF003208BE003108BD00300835
:1014F000BC00B301B201B101B001370B9D2A38081D
:10150000433C03199D2A3F08DA003E08D9003D08F4
:10151000D8003C08D700DE01DD018030DC007F30E0
:10152000DB008A11DE228A157A08BF007908BE0026
:101530007808BD007708BC00B70138082A3C031DB5
:10154000A32A0130C700350B622B3808413C031D2C
:10155000D02A0130B6000C30D7008A11ED218A154F
:101560002030D7008A11ED218A15893084003F0888
:10157000CD003E08CC003D08CB003C08CA00063038
:10158000CE008A11C1238A15283003178D00003040
:101590008F00031404300313CA008A1184248A15AF
:1015A0003808423C031DFB2A0230B6000C30D7003D
:1015B0008A11ED218A152030D7008A11ED218A1574
:1015C000893084003F08CD003E08CC003D08CB00A8
:1015D0003C08CA000630CE008A11C1238A152E307D
:1015E00003178D0000308F00031404300313CA006A
:1015F0008A1184248A153808433C031D262B0330A6
:10160000B6000C30D7008A11ED218A152030D700A2
:101610008A11ED218A15893084003F08CD003E08EB
:10162000CC003D08CB003C08CA000630CE008A1131
:10163000C1238A15343003178D0000308F00031446
:1016400004300313CA008A1184248A153808443CE4
:10165000031D512B0430B6000C30D7008A11ED2148
:101660008A152030D7008A11ED218A15893084002F
:101670003F08CD003E08CC003D08CB003C08CA0026
:101680000630CE008A11C1238A153A3003178D0027
:1016900000308F00031404300313CA008A1184241D
:1016A0008A15C501C4010130C6003F08C3003E08C9
:1016B000C2003D08C1003C08C000BF01BE01BD0121
:1016C000BC011A2C3808413C031D8C2B0130B6009C
:1016D0000C30D7008A11ED218A152030D7008A11ED
:1016E000ED218A15033084003F08CD003E08CC0070
:1016F0003D08CB003C08CA00CE018A11C1238A15DF
:10170000403003178D0000308F00031404300313A2
:10171000CA008A1184248A153808423C031DB62B5E
:101720000230B6000C30D7008A11ED218A15203026
:10173000D7008A11ED218A15033084003F08CD00BF
:101740003E08CC003D08CB003C08CA00CE018A11FF
:10175000C1238A15463003178D0000308F00031413
:1017600004300313CA008A1184248A153808433CC4
:10177000031DE02B0330B6000C30D7008A11ED2199
:101780008A152030D7008A11ED218A150330840094
:101790003F08CD003E08CC003D08CB003C08CA0005
:1017A000CE018A11C1238A154C3003178D000030F9
:1017B0008F00031404300313CA008A1184248A158D
:1017C0003808443C031D0A2C0430B6000C30D70006
:1017D0008A11ED218A152030D7008A11ED218A1552
:1017E000033084003F08CD003E08CC003D08CB000C
:1017F0003C08CA00CE018A11C1238A155230031752
:101800008D0000308F00031404300313CA008A11C6
:1018100084248A15C501C4010130C6003F08C300F5
:101820003E08C2003D08C1003C08C000BF01BE0127
:10183000BD01BC013808233C031D4E2F450B4E2F24
:10184000460B4E2F370B3E2C4308DA004208D900D6
:101850004108D8004008D700DE01DD018030DC00FF
:101860007F30DB008A11DE228A157A08C3007908EE
:10187000C2007808C1007708C000B701350BCB2D36
:1018800001303602FC3E0318CA2D043E522F430895
:10189000CD004208CC004108CB004008CA003F08F8
:1018A000D1003E08D0003D08CF003C08CE008A1190
:1018B000DB248A157A08AF007908AE007808AD00FD
:1018C0007708AC000C30D7008A11ED218A15203042
:1018D000D7008A11ED218A15893084004308CD0094
:1018E0004208CC004108CB004008CA000630CE00B8
:1018F0008A11C1238A152F30D7008A11ED218A154C
:10190000893084003F08CD003E08CC003D08CB0064
:101910003C08CA00CE018A11C1238A150130D800C3
:101920000230D9008A11DB218A15893084002F0802
:10193000CD002E08CC002D08CB002C08CA000630A4
:10194000CE008A11E6268A15CA2D4308DA0042081D
:10195000D9004108D8004008D7003F08DE003E0803
:10196000DD003D08DC003C08DB008A11DE228A1520
:101970007A08AF007908AE007808AD007708AC00AF
:101980000C30D7008A11ED218A152030D7008A113A
:10199000ED218A15893084004308CD004208CC002F
:1019A0004108CB004008CA000630CE008A11C1238E
:1019B0008A152A30D7008A11ED218A1589308400D2
:1019C0003F08CD003E08CC003D08CB003C08CA00D3
:1019D000CE018A11C1238A150130D8000230D90006
:1019E0008A11DB218A15083084002F08CD002E08CB
:1019F000CC002D08CB002C08CA000630CE008A117E
:101A0000E6268A15CA2D83144308DA004208D90055
:101A10004108D8004008D7003F08DE003E08DD003E
:101A20003D08DC003C08DB008A11A5258A157A08F0
:101A3000AF007908AE007808AD007708AC000C3034
:101A4000D7008A11ED218A152030D7008A11ED21A7
:101A50008A15893084004308CD004208CC00410833
:101A6000CB004008CA000630CE008A11C1238A1577
:101A70002D30D7008A11ED218A15893084003F0866
:101A8000CD003E08CC003D08CB003C08CA00CE018A
:101A90008A11C1238A150130D8000230D9008A1179
:101AA000DB218A152030D7008A11ED218A15893073
:101AB00084002F08CD002E08CC002D08CB002C0868
:101AC000CA000630CE008A11E6268A15CA2D831078
:101AD0004308DA004208D9004108D8004008D7007E
:101AE0003F08DE003E08DD003D08DC003C08DB006E
:101AF0008A11A5258A157A08AF007908AE00780802
:101B0000AD007708AC000C30D7008A11ED218A15A2
:101B10002030D7008A11ED218A15893084004308CE
:101B2000CD004208CC004108CB004008CA00063076
:101B3000CE008A11C1238A152B30D7008A11ED21DE
:101B40008A15893084003F08CD003E08CC003D084E
:101B5000CB003C08CA00CE018A11C1238A1501308E
:101B6000D8000230D9008A11DB218A152030D70035
:101B70008A11ED218A15893084002F08CD002E08A6
:101B8000CC002D08CB002C08CA000630CE008A11EC
:101B9000E6268A154E2F01303602FC3E03184E2FE2
:101BA000043E5A2F4308CD004208CC004108CB0028
:101BB0004008CA003F08D1003E08D0003D08CF00D1
:101BC0003C08CE008A11DB248A157A08AF00790818
:101BD000AE007808AD007708AC000C30D7008A1151
:101BE000ED218A152030D7008A11ED218A15893020
:101BF00084004308CD004208CC004108CB004008D7
:101C0000CA00CE018A11C1238A152F30D7008A114C
:101C1000ED218A15893084003F08CD003E08CC00B4
:101C20003D08CB003C08CA00CE018A11C1238A15A9
:101C30000130D8000230D9008A11DB218A158930A1
:101C400084002F08CD002E08CC002D08CB002C08D6
:101C5000CA000630CE008A11E6268A154E2F4308A8
:101C6000DA004208D9004108D8004008D7003F08F0
:101C7000DE003E08DD003D08DC003C08DB008A1188
:101C8000DE228A157A08AF007908AE007808AD0028
:101C90007708AC000C30D7008A11ED218A1520306E
:101CA000D7008A11ED218A15893084004308CD00C0
:101CB0004208CC004108CB004008CA00CE018A117E
:101CC000C1238A152A30D7008A11ED218A1589305F
:101CD00084003F08CD003E08CC003D08CB003C0806
:101CE000CA00CE018A11C1238A150130D800023002
:101CF000D9008A11DB218A15083084002F08CD0015
:101D00002E08CC002D08CB002C08CA00CE018A1169
:101D1000E6268A154E2F83144308DA004208D900BC
:101D20004108D8004008D7003F08DE003E08DD002B
:101D30003D08DC003C08DB008A11A5258A157A08DD
:101D4000AF007908AE007808AD007708AC000C3021
:101D5000D7008A11ED218A152030D7008A11ED2194
:101D60008A15893084004308CD004208CC00410820
:101D7000CB004008CA00CE018A11C1238A152D303C
:101D8000D7008A11ED218A15893084003F08CD00E3
:101D90003E08CC003D08CB003C08CA00CE018A11A9
:101DA000C1238A150130D8000230D9008A11DB2105
:101DB0008A152030D7008A11ED218A1589308400D8
:101DC0002F08CD002E08CC002D08CB002C08CA000F
:101DD000CE018A11E6268A154E2F83104308DA00B9
:101DE0004208D9004108D8004008D7003F08DE006B
:101DF0003E08DD003D08DC003C08DB008A11A5251B
:101E00008A157A08AF007908AE007808AD00770827
:101E1000AC000C30D7008A11ED218A152030D70094
:101E20008A11ED218A15893084004308CD004208CB
:101E3000CC004108CB004008CA00CE018A11C12362
:101E40008A152B30D7008A11ED218A15893084003C
:101E50003F08CD003E08CC003D08CB003C08CA003E
:101E6000CE018A11C1238A150130D8000230D90071
:101E70008A11DB218A152030D7008A11ED218A15BD
:101E8000893084002F08CD002E08CC002D08CB000F
:101E90002C08CA00CE018A11E6268A158528222838
:101EA000102863000A148A140A158207472CA52CEF
:101EB000032D672D0A148A140A158207D22D2F2E9E
:041EC0008B2EED2E4A
:02400E00723FFF
:00000001FF
;PIC16F877
;CRC=B90E  CREATED="15-jun-19 10:07"
